:100000000C945D000C9485000C9485000C94850084
:100010000C9485000C9485000C9485000C9485004C
:100020000C9485000C9485000C9485000C9485003C
:100030000C9485000C9431030C9485000C9485007D
:100040000C948F020C9485000C94FF020C94D9023E
:100050000C9485000C9485000C9485000C9485000C
:100060000C9485000C94850000000008000201003B
:100070000003040700000000000000000000000072
:10008000250028002B0000000000240027002A0083
:10009000040404040404040402020202020203032E
:1000A0000303030301020408102040800102040836
:1000B0001020010204081020380411241FBECFEFC5
:1000C000D8E0DEBFCDBF11E0A0E0B1E0EAEDF8E09E
:1000D00002C005900D92A431B107D9F721E0A4E147
:1000E000B1E001C01D92A53DB207E1F710E0CDE5FA
:1000F000D0E004C02197FE010E946504CC35D107F1
:10010000C9F70E9458030C946B040C94000090E013
:10011000FC01EC55FF4F249180579F4FFC018491C7
:10012000882399F090E0880F991FFC01EA57FF4F50
:10013000A591B491FC01E458FF4F859194918FB73C
:10014000F894EC91E22BEC938FBF0895AF92BF929D
:10015000CF92DF92EF92FF920F931F93CF93DF9393
:100160006C017B018B01040F151FEB015E01AE18C2
:10017000BF08C017D10759F06991D601ED91FC91E4
:100180000190F081E02DC6010995892B79F7C50111
:10019000DF91CF911F910F91FF90EF90DF90CF9063
:1001A000BF90AF900895FC01538D448D252F30E012
:1001B000842F90E0821B930B541710F0CF96089574
:1001C00001970895FC01918D828D981761F0A28DA1
:1001D000AE0FBF2FB11D5D968C91928D9F5F9F7367
:1001E000928F90E008958FEF9FEF0895FC01918D1D
:1001F000828D981731F0828DE80FF11D858D90E08A
:1002000008958FEF9FEF0895FC01918D228D892F26
:1002100090E0805C9F4F821B91098F73992708950E
:100220008FE291E00E94040121E0892B09F420E093
:10023000822F089580E090E0892B29F00E94100120
:1002400081110C9400000895FC01A48DA80FB92F12
:10025000B11DA35ABF4F2C91848D90E001968F73EE
:100260009927848FA689B7892C93A089B1898C910D
:10027000837080648C93938D848D981306C002885C
:10028000F389E02D80818F7D80830895EF92FF9226
:100290000F931F93CF93DF93EC0181E0888F9B8DA9
:1002A0008C8D98131AC0E889F989808185FF15C063
:1002B0009FB7F894EE89FF896083E889F989808186
:1002C0008370806480839FBF81E090E0DF91CF9155
:1002D0001F910F91FF90EF900895F62E0B8D10E077
:1002E0000F5F1F4F0F731127E02E8C8D8E110CC0E6
:1002F0000FB607FCFACFE889F989808185FFF5CF31
:10030000CE010E942401F1CFEB8DEC0FFD2FF11DEA
:10031000E35AFF4FF0829FB7F8940B8FEA89FB896D
:1003200080818062CFCFCF93DF93EC01888D8823CB
:10033000B9F0AA89BB89E889F9898C9185FD03C048
:10034000808186FD0DC00FB607FCF7CF8C9185FF2D
:10035000F2CF808185FFEDCFCE010E942401E9CF4D
:10036000DF91CF91089590E0FC01E859FF4F24916F
:10037000FC01EC55FF4F3491FC01E057FF4FE49135
:10038000EE23C9F0222339F0233001F1A8F4213003
:1003900019F1223029F1F0E0EE0FFF1FE458FF4F72
:1003A000A591B4918FB7F894EC91611126C0309566
:1003B0003E233C938FBF08952730A9F02830C9F021
:1003C000243049F7809180008F7D03C080918000A8
:1003D0008F7780938000DFCF84B58F7784BDDBCFAC
:1003E00084B58F7DFBCF8091B0008F778093B00074
:1003F000D2CF8091B0008F7DF9CF3E2BDACF0F9313
:100400001F93CF93DF93082F162FD42FC8E06D2FA3
:10041000661F6627661F802F0E94B301DD0F61E013
:10042000812F0E94B30160E0812F0E94B301C1506F
:1004300071F7DF91CF911F910F910895CF92DF92C5
:10044000EF92FF920F931F93CF93DF93C091000120
:10045000D09101012197D0930101C09300018091B7
:1004600014018823B1F107E111E097E2E92E91E050
:10047000F92E2FE1C22E21E0D22E60E088E00E940A
:10048000B301F80141918F016CE08BE00E94FF0104
:10049000F70141917F016CE08BE00E94FF0161E078
:1004A00088E00E94B301C016D10639F7CD2B41F484
:1004B0001092140184E690E0909301018093000172
:1004C000DF91CF911F910F91FF90EF90DF90CF9030
:1004D00008950FE111E087E2E82E81E0F82E60E058
:1004E00088E00E94B301F80141918F016CE08BE03C
:1004F0000E94FF01F70141917F016CE08BE00E94B7
:10050000FF0161E088E00E94B301F1E007321F07BC
:1005100031F7CD2BA9F681E080931401CBCF1F9248
:100520000F920FB60F9211242F933F938F939F93A7
:10053000AF93BF938091D1019091D201A091D3014B
:10054000B091D4013091D00123E0230F2D3758F51D
:100550000196A11DB11D2093D0018093D1019093EC
:10056000D201A093D301B093D4018091CC0190919A
:10057000CD01A091CE01B091CF010196A11DB11D79
:100580008093CC019093CD01A093CE01B093CF0185
:10059000BF91AF919F918F913F912F910F900FBE7F
:1005A0000F901F90189526E8230F0296A11DB11DEC
:1005B000D2CF1F920F920FB60F9211242F933F9319
:1005C0004F935F936F937F938F939F93AF93BF935B
:1005D000EF93FF938FE291E00E942401FF91EF914E
:1005E000BF91AF919F918F917F916F915F914F914B
:1005F0003F912F910F900FBE0F901F9018951F9253
:100600000F920FB60F9211242F938F939F93EF9316
:10061000FF93E0913F01F09140018081E09145011D
:10062000F091460182FD1BC09081809148018F5F4F
:100630008F7320914901821741F0E0914801F0E069
:10064000E15DFE4F958F80934801FF91EF919F915F
:100650008F912F910F900FBE0F901F901895808152
:10066000F4CF1F920F920FB60F9211242F933F9346
:100670004F935F936F937F938F939F93AF93BF93AA
:10068000EF93FF93E0911501F09116010995FF9109
:10069000EF91BF91AF919F918F917F916F915F91FA
:1006A0004F913F912F910F900FBE0F901F90189573
:1006B000789484B5826084BD84B5816084BD85B53D
:1006C000826085BD85B5816085BD80916E00816049
:1006D00080936E00109281008091810082608093EF
:1006E00081008091810081608093810080918000F1
:1006F0008160809380008091B10084608093B1001C
:100700008091B00081608093B00080917A00846015
:1007100080937A0080917A00826080937A00809141
:100720007A00816080937A0080917A00806880935B
:100730007A001092C100E0913F01F091400182E007
:100740008083E0913B01F0913C011082E0913D01FA
:10075000F0913E018FEC808310924701E0914301BC
:10076000F091440186E08083E0914101F0914201E3
:10077000808180618083E0914101F091420180811C
:1007800088608083E0914101F0914201808180681E
:100790008083E0914101F091420180818F7D8083CF
:1007A00088E00E9487008BE00E9487008CE00E9416
:1007B00087008EEF809327018DEF809328018BEFC8
:1007C0008093290187EF80932A018FEE80932B017C
:1007D0008FED80932C018FEB80932D018FE7809319
:1007E0002E018CE380931F0192E49093200125EA6F
:1007F0002093210141E8409322012093230139E90C
:100800003093240190932501809326018093170152
:10081000909318012093190140931A0130931B0102
:1008200020931C0190931D0180931E0180E1809311
:1008300081001092800080E197E29093870080937E
:10084000860082E1809381008EE192E09093160110
:100850008093150181E080936F00C0E0D0E0209785
:10086000F1F30E9410018823D1F30E940000F7CF1A
:10087000EFE2F1E01382128288EE93E0A0E0B0E0B4
:1008800084839583A683B78386E091E091838083F8
:1008900085EC90E09587848784EC90E09787868745
:1008A00080EC90E0918B808B81EC90E0938B828B3D
:1008B00082EC90E0958B848B86EC90E0978B868B16
:1008C000118E128E138E148E0895EE0FFF1F059059
:0A08D000F491E02D0994F894FFCF95
:1008DA006400000000004601A600D3009301040151
:0408EA00E200F60032
:00000001FF
