:100000000C946B000C947D000C947D000C947D008E
:100010000C947D000C947D000C947D000C947D006C
:100020000C947D000C947D000C947D000C947D005C
:100030000C947D000C947D000C947D000C947D004C
:100040000C940F010C947D000C947D000C947D00A9
:100050000C947D000C947D000C947D000C947D002C
:100060000C947D000C947D0005A84CCDB2D44EB903
:100070003836A9020C50B9918688083CA6AAAA2A4B
:10008000BE000000803F00000008000201000003E5
:100090000407000000000000000000000000250030
:1000A00028002B0000000000240027002A00040480
:1000B0000404040404040202020202020303030310
:1000C00003030102040810204080010204081020EC
:1000D00001020408102011241FBECFEFD8E0DEBFBC
:1000E000CDBF21E0A0E0B1E001C01D92A930B20770
:1000F000E1F70E9459010C9469040C94000090E00F
:10010000FC01EE53FF4F249182559F4FFC018491D7
:10011000882399F090E0880F991FFC01EC55FF4F60
:10012000A591B491FC01E656FF4F859194918FB74C
:10013000F894EC91E22BEC938FBF089590E0FC01D2
:10014000EA57FF4F2491FC01EE53FF4F3491FC011D
:10015000E255FF4FE491EE23C9F0222339F023301A
:1001600001F1A8F4213019F1223029F1F0E0EE0F6D
:10017000FF1FE656FF4FA591B4918FB7F894EC910D
:10018000611126C030953E233C938FBF08952730E0
:10019000A9F02830C9F0243049F7809180008F7D84
:1001A00003C0809180008F7780938000DFCF84B57B
:1001B0008F7784BDDBCF84B58F7DFBCF8091B0007E
:1001C0008F778093B000D2CF8091B0008F7DF9CF30
:1001D0003E2BDACF3FB7F89480910501909106014C
:1001E000A0910701B091080126B5A89B05C02F3F3B
:1001F00019F00196A11DB11D3FBFBA2FA92F982F4D
:100200008827BC01CD01620F711D811D911D42E047
:10021000660F771F881F991F4A95D1F708951F927F
:100220000F920FB60F9211242F933F938F939F93AA
:10023000AF93BF938091010190910201A0910301BE
:10024000B09104013091000123E0230F2D3758F5C0
:100250000196A11DB11D209300018093010190938F
:100260000201A0930301B0930401809105019091D4
:100270000601A0910701B09108010196A11DB11DD1
:100280008093050190930601A0930701B0930801A4
:10029000BF91AF919F918F913F912F910F900FBE82
:1002A0000F901F90189526E8230F0296A11DB11DEF
:1002B000D2CF789484B5826084BD84B5816084BDDA
:1002C00085B5826085BD85B5816085BD80916E00F4
:1002D000816080936E001092810080918100826025
:1002E0008093810080918100816080938100809162
:1002F00080008160809380008091B1008460809351
:10030000B1008091B00081608093B00080917A004C
:10031000846080937A0080917A00826080937A0072
:1003200080917A00816080937A0080917A00806861
:1003300080937A001092C10083E00E947F0099E8C8
:10034000E92E90E0F92E20E0C22E20E0D22ED0E05F
:10035000C0E0BE010D2E000C880B990B0E947A02A2
:1003600022EA35EF4EE85CE30E94DE020E944B0376
:1003700020E030E04FE753E40E94DE020E94420298
:100380004B018B0183E00E947F0081149104A1F551
:1003900060E083E00E949E000E94EA002B013C0185
:1003A00089E1882E912CA12CB12C0E94EA006419BD
:1003B000750986099709683E734081059105A8F380
:1003C000F1E08F1A9108A108B10828EE420E23E04F
:1003D000521E611C711C81149104A104B10429F7FF
:1003E0002196C43BD10509F0B4CFC114D10409F45E
:1003F000AECF0E940000ABCF0F3F110511F461E0BA
:10040000C8CFF7018491833019F140F48130B1F005
:100410008230C9F00038110594F7BACF873011F156
:10042000883041F18430B1F7809180008062809300
:10043000800090928B0080928A00AECF84B5806855
:1004400084BD87BCA9CF84B5806284BD88BCA4CF9D
:1004500080918000806880938000909289008092D3
:1004600088009ACF8091B00080688093B00080921D
:10047000B30092CF8091B00080628093B0008092F0
:10048000B4008ACF0E9449026894B1110C94D8023A
:1004900008950E94BD0288F09F5798F0B92F9927C0
:1004A000B751B0F0E1F0660F771F881F991F1AF05F
:1004B000BA95C9F714C0B13091F00E94D702B1E0EB
:1004C00008950C94D702672F782F8827B85F39F0EA
:1004D000B93FCCF3869577956795B395D9F73EF4F8
:1004E00090958095709561957F4F8F4F9F4F0895A0
:1004F000E89409C097FB3EF49095809570956195BE
:100500007F4F8F4F9F4F9923A9F0F92F96E9BB2773
:100510009395F695879577956795B795F111F8CFEF
:10052000FAF4BB0F11F460FF1BC06F5F7F4F8F4F5A
:100530009F4F16C0882311F096E911C0772321F050
:100540009EE8872F762F05C0662371F096E8862FE8
:1005500070E060E02AF09A95660F771F881FDAF73F
:10056000880F9695879597F9089557FD9058440FF1
:10057000551F59F05F3F71F04795880F97FB991F02
:1005800061F09F3F79F087950895121613061406BF
:10059000551FF2CF4695F1DF08C01616170618064C
:1005A000991FF1CF86957105610508940895E89427
:1005B000BB2766277727CB0197F908950E94F102A0
:1005C0000C9495030E945C0338F00E94630320F0B2
:1005D000952311F00C9453030C94590311240C949B
:1005E000D8020E94B50270F3959FC1F3950F50E0B9
:1005F000551F629FF001729FBB27F00DB11D639FD5
:10060000AA27F00DB11DAA1F649F6627B00DA11D7A
:10061000661F829F2227B00DA11D621F739FB00D20
:10062000A11D621F839FA00D611D221F749F332790
:10063000A00D611D231F849F600D211D822F762F29
:100640006A2F11249F5750409AF0F1F088234AF006
:10065000EE0FFF1FBB1F661F771F881F9150504072
:10066000A9F79E3F510580F00C9453030C94D802D7
:100670005F3FE4F3983ED4F3869577956795B795F9
:10068000F795E7959F5FC1F7FE2B880F911D969513
:10069000879597F908959F930E946C030F9007FC2C
:1006A000EE5F0C94A60397F99F6780E870E060E026
:1006B00008959FEF80EC089500240A9416161706FB
:1006C00018060906089500240A9412161306140643
:1006D000050608950C9459030E94BD02D8F3E894CE
:1006E000E0E0BB279F57F0F02AED3FE049EC06C061
:1006F000EE0FBB0F661F771F881F28F0B23A620704
:100700007307840728F0B25A620B730B840BE395CE
:100710009A9572F7803830F49A95BB0F661F771F51
:10072000881FD2F790480C942204092E0394000CE1
:1007300011F4882352F0BB0F40F4BF2B11F460FF7B
:1007400004C06F5F7F4F8F4F9F4F0895EF93E0FF7F
:1007500007C0A2EA2AED3FE049EC5FEB0E94CB0321
:100760000E9495030F90039401FC9058E8E6F0E096
:100770000C942E040E945C0338F00E94630320F066
:1007800039F49F3F19F426F40C9459030EF4E095C4
:10079000E7FB0C945303E92F0E94B50258F3BA17F4
:1007A000620773078407950720F079F4A6F50C9487
:1007B000D7020EF4E0950B2EBA2FA02D0B01B90134
:1007C00090010C01CA01A0011124FF27591B99F0C7
:1007D000593F50F4503E68F11A16F040A22F232FD3
:1007E000342F4427585FF3CF469537952795A79523
:1007F000F0405395C9F77EF41F16BA0B620B730BCA
:10080000840BBAF09150A1F0FF0FBB1F661F771F3A
:10081000881FC2F70EC0BA0F621F731F841F48F4EF
:10082000879577956795B795F7959E3F08F0B0CF78
:100830009395880F08F09927EE0F9795879508955F
:100840009F3F31F0915020F4879577956795B79544
:10085000880F911D9695879597F908959F938F938B
:100860007F936F93FF93EF939B01AC010E94DE0295
:10087000EF91FF910E9442042F913F914F915F9120
:100880000C94DE02DF93CF931F930F93FF92EF92AE
:10089000DF927B018C01689406C0DA2EEF010E9482
:1008A000F102FE01E894A59125913591459155916C
:1008B000A6F3EF010E94CB03FE019701A801DA9491
:1008C00069F7DF90EF90FF900F911F91CF91DF912B
:0608D0000895F894FFCF2B
:00000001FF
