:100000000C945C000C946E000C946E000C946E00CA
:100010000C946E000C946E000C946E000C946E00A8
:100020000C946E000C946E000C946E000C946E0098
:100030000C946E000C9497010C946E000C946E005E
:100040000C944D010C946E000C946E000C946E0098
:100050000C946E000C946E000C946E000C946E0068
:100060000C946E000C946E00000000080002010069
:100070000003040700000000000000000000000072
:10008000250028002B0000000000240027002A0083
:10009000040404040404040402020202020203032E
:1000A0000303030301020408102040800102040836
:1000B000102001020408102011241FBECFEFD8E049
:1000C000DEBFCDBF21E0A0E0B1E001C01D92A331B1
:1000D000B207E1F70E94BE010C946E020C9400007E
:1000E00090E0FC01EC55FF4F249180579F4FFC019D
:1000F0008491882399F090E0880F991FFC01EA57BA
:10010000FF4FA591B491FC01E458FF4F8591949164
:100110008FB7F894EC91E22BEC938FBF089590E0A9
:10012000FC01E859FF4F2491FC01EC55FF4F34913D
:10013000FC01E057FF4FE491EE23C9F0222339F090
:10014000233001F1A8F4213019F1223029F1F0E037
:10015000EE0FFF1FE458FF4FA591B4918FB7F894AD
:10016000EC91611126C030953E233C938FBF0895DA
:100170002730A9F02830C9F0243049F78091800059
:100180008F7D03C0809180008F7780938000DFCFC8
:1001900084B58F7784BDDBCF84B58F7DFBCF809115
:1001A000B0008F778093B000D2CF8091B0008F7D68
:1001B000F9CF3E2BDACF3FB7F894809105019091AB
:1001C0000601A0910701B091080126B5A89B05C0C2
:1001D0002F3F19F00196A11DB11D3FBFBA2FA92FC6
:1001E000982F8827BC01CD01620F711D811D911DC3
:1001F00042E0660F771F881F991F4A95D1F708952F
:100200000F931F93CF93DF93082F60E08BE00E9442
:100210008F00D0E0C0E010E060E08CE00E948F0032
:10022000B8010C2E02C0759567950A94E2F76170CB
:100230008BE00E948F0061E08CE00E948F0060E004
:100240008BE00E948F002196C830D10529F760E02D
:100250008CE0DF91CF911F910F910C948F001F9331
:10026000CF93DF93CBE0D1E01FEF60E088E00E9406
:100270008F00899180950E940001812F0E940001CA
:1002800061E088E00E948F00110F81E0C431D8073F
:1002900061F7DF91CF911F9108951F920F920FB6D2
:1002A0000F9211242F933F938F939F93AF93BF93FC
:1002B0008091010190910201A0910301B09104018C
:1002C0003091000123E0230F2D3758F50196A11D31
:1002D000B11D209300018093010190930201A0932E
:1002E0000301B09304018091050190910601A09152
:1002F0000701B09108010196A11DB11D8093050170
:1003000090930601A0930701B0930801BF91AF91AC
:100310009F918F913F912F910F900FBE0F901F9043
:10032000189526E8230F0296A11DB11DD2CF1F926A
:100330000F920FB60F9211242F933F934F935F9319
:100340006F937F938F939F93AF93BF93EF93FF939D
:10035000E0910901F0910A010995FF91EF91BF9198
:10036000AF919F918F917F916F915F914F913F914D
:100370002F910F900FBE0F901F901895789484B511
:10038000826084BD84B5816084BD85B5826085BD91
:1003900085B5816085BD80916E00816080936E001F
:1003A0001092810080918100826080938100809111
:1003B00081008160809381008091800081608093C2
:1003C00080008091B10084608093B1008091B00082
:1003D00081608093B00080917A00846080937A007D
:1003E00080917A00826080937A0080917A008160A7
:1003F00080937A0080917A00806880937A001092CE
:10040000C10088E00E9470008CE00E9470008BE0C8
:100410000E9470008FEF80930B0182E480930C01A7
:1004200095EA90930D0121E820930E0190930F011E
:1004300099E990931001809311018CE3809312014C
:1004400080E1809381001092800080E197E2909398
:1004500087008093860082E1809381008FE291E0A3
:1004600090930A018093090181E080936F00C0E0BE
:10047000D0E0EBE0F1E08191DF01119780958C9362
:1004800021E0E331F207B9F70E94DB004B015C0188
:1004900084EFC82EDD24D394E12CF12C0E94DB00E4
:1004A000681979098A099B09683E7340810591059D
:1004B000A8F381E0C81AD108E108F10828EE820EFD
:1004C00023E0921EA11CB11CC114D104E104F1046B
:1004D00029F7209771F20E940000CBCFF894FFCF4C
:00000001FF
