:100000000C945C000C9479000C9479000C947900A9
:100010000C9479000C9479000C9479000C9479007C
:100020000C9479000C9479000C9479000C9479006C
:100030000C9479000C9479000C9479000C9479005C
:100040000C946A010C9479000C9479000C9479005A
:100050000C9479000C9479000C9479000C9479003C
:100060000C9479000C947900000000002400270013
:100070002A0000000000250028002B0004040404CE
:100080000404040402020202020203030303030342
:10009000010204081020408001020408102001021F
:1000A00004081020000000080002010000030407FB
:1000B000000000000000000011241FBECFEFD8E0B8
:1000C000DEBFCDBF11E0A0E0B1E0E2EFFBE002C097
:1000D00005900D92A430B107D9F721E0A4E0B1E07A
:1000E00001C01D92A533B207E1F70E94B4010C9440
:1000F000F7050C94000080E480937C0080917A00E6
:10010000806480937A0080917A0086FDFCCF809194
:10011000780090917900089590E0FC01EC55FF4F34
:100120002491FC01E057FF4F3491FC01E458FF4F4C
:10013000E491EE23C9F0222339F0233001F1A8F431
:10014000213019F1223029F1F0E0EE0FFF1FEE58B7
:10015000FF4FA591B4918FB7F894EC91611126C02F
:1001600030953E233C938FBF08952730A9F0283067
:10017000C9F0243049F7809180008F7D03C08091C1
:1001800080008F7780938000DFCF84B58F7784BD28
:10019000DBCF84B58F7DFBCF8091B0008F778093CC
:1001A000B000D2CF8091B0008F7DF9CF3E2BDACF57
:1001B000482F50E0FA01E057FF4F9491FA01E458BC
:1001C000FF4F2491222399F030E0220F331FF901D1
:1001D000E859FF4FA591B491F901EE58FF4F2591D1
:1001E00034912FB7F894EC91E92BEC932FBF611564
:1001F000710519F460E00C948C006F3F710511F4E7
:1002000061E0F9CFFA01EC55FF4FE491E33019F1C9
:1002100040F4E130B1F0E230C9F06038710584F7A4
:10022000E9CFE73011F1E83041F1E430B1F78091E6
:10023000800080628093800070938B0060938A00BE
:10024000089584B5806884BD67BD089584B58062D3
:1002500084BD68BD0895809180008068809380008F
:10026000709389006093880008958091B000806841
:100270008093B0006093B30008958091B0008062D5
:100280008093B0006093B40008953FB7F8948091D4
:10029000090190910A01A0910B01B0910C0126B5C2
:1002A000A89B05C02F3F19F00196A11DB11D3FBFAE
:1002B000BA2FA92F982F8827BC01CD01620F711D7D
:1002C000811D911D42E0660F771F881F991F4A9577
:1002D000D1F708951F920F920FB60F9211242F930A
:1002E0003F938F939F93AF93BF938091050190911C
:1002F0000601A0910701B09108013091040123E0AB
:10030000230F2D3758F50196A11DB11D209304012F
:100310008093050190930601A0930701B093080113
:100320008091090190910A01A0910B01B0910C01FB
:100330000196A11DB11D8093090190930A01A0931C
:100340000B01B0930C01BF91AF919F918F913F91A1
:100350002F910F900FBE0F901F90189526E8230F36
:100360000296A11DB11DD2CFCF93DF93CDB7DEB7DB
:100370002A970FB6F894DEBF0FBECDBF789484B530
:10038000826084BD84B5816084BD85B5826085BD91
:1003900085B5816085BD80916E00816080936E001F
:1003A0001092810080918100826080938100809111
:1003B00081008160809381008091800081608093C2
:1003C00080008091B10084608093B1008091B00082
:1003D00081608093B00080917A00846080937A007D
:1003E00080917A00826080937A0080917A008160A7
:1003F00080937A0080917A00806880937A001092CE
:10040000C1000E947B00BC01990F880B990B6115FC
:1004100071058105910511F00E94ED0310922901EB
:1004200010922A0110922B0110922C0110922D0192
:1004300010922E0110922F01109230011092310172
:100440001092320110923301109234010E949E03E7
:10045000C12CD12C7601D394A70196010E94F603FA
:100460000E94FE0460931D0170931E0180931F0182
:10047000909320010E949E03A70196010E94F6031B
:100480000E94FE0460932101709322018093230156
:10049000909324010E949E03A70196010E94F603F7
:1004A0000E94FE046093250170932601809327012A
:1004B0009093280145E3242E41E0342E00E010E023
:1004C0000E947B00BC01990F880B990B6115710587
:1004D0008105910511F00E94ED0389E291E09A8374
:1004E00089839DE1C92E91E0D92E21E1E22E21E000
:1004F000F22EA981BA816D917D918D919D91BA83E2
:10050000A983F60121913191419151916F010E948E
:10051000590420E030E040E85BE30E948A05D701FF
:100520006D937D938D939D937D01E981FA812E16C4
:100530003F06F9F680E091E09A878987409029018B
:1005400050902A0160902B0170902C0180912D0118
:1005500090912E01A0912F01B091300189839A834F
:10056000AB83BC83BC01CD010E94C6044B017093D8
:10057000100160930F018091310190913201A0919F
:100580003301B09134018D839E83AF83B887BC0162
:10059000CD010E94C6046B0170930E0160930D01A2
:1005A000C301B2010E94C6048BE00E94D800B401CE
:1005B0008AE00E94D800B60189E00E94D8000E941B
:1005C00045014B015C0184E6C82ED12CE12CF12CB5
:1005D0000E944501681979098A099B09683E7340A0
:1005E00081059105A8F391E0C91AD108E108F10845
:1005F000A8EE8A0EA3E09A1EA11CB11CC114D1045E
:10060000E104F10429F72091110130911201409188
:10061000130150911401C301B2010E945904609367
:10062000290170932A0180932B0190932C01209132
:1006300015013091160140911701509118016981FF
:100640007A818B819C810E94590460932D01709363
:100650002E0180932F019093300120911901309148
:100660001A0140911B0150911C016D817E818F8187
:1006700098850E94590460933101709332018093F0
:10068000330190933401E985FA853197FA87E98738
:10069000EF2B09F053CF0115110509F411CF0E947A
:1006A00000000ECF8F929F92AF92BF92CF92DF92B7
:1006B000EF92FF92CF93DF93EC01688179818A8179
:1006C0009B81611571058105910521F464E279ED45
:1006D0008BE597E02DE133EF41E050E00E94F60317
:1006E00049015A019B01AC01A7EAB1E40E9415043B
:1006F0006B017C01ACEEB4EFA50194010E942304D0
:10070000C60ED71EE81EF91EF7FE06C081E0C81A05
:10071000D108E10880E8F80AC882D982EA82FB821F
:10072000C701B6019F77DF91CF91FF90EF90DF90E7
:10073000CF90BF90AF909F908F9008958F929F928F
:10074000AF92BF92CF92DF92EF92FF926091000141
:100750007091010180910201909103016115710571
:100760008105910521F464E279ED8BE597E02DE1B7
:1007700033EF41E050E00E94F60349015A019B012A
:10078000AC01A7EAB1E40E9415046B017C01ACEE58
:10079000B4EFA50194010E942304C60ED71EE81EE3
:1007A000F91EF7FE06C081E0C81AD108E10880E80A
:1007B000F80AC0920001D0920101E0920201F09289
:1007C0000301C701B6019F77FF90EF90DF90CF90B4
:1007D000BF90AF909F908F900895609300017093A9
:1007E000010180930201909303010895052E97FB68
:1007F0001EF400940E940D0457FD07D00E942804A7
:1008000007FC03D04EF40C940D04509540953095A0
:1008100021953F4F4F4F5F4F08959095809570956C
:1008200061957F4F8F4F9F4F08950E944A04A59F67
:10083000900DB49F900DA49F800D911D11240895DB
:10084000B7FF0C9415040E941504821B930B0895A6
:10085000A1E21A2EAA1BBB1BFD010DC0AA1FBB1FC4
:10086000EE1FFF1FA217B307E407F50720F0A21B36
:10087000B30BE40BF50B661F771F881F991F1A94A3
:1008800069F760957095809590959B01AC01BD01CD
:10089000CF010895A29FB001B39FC001A39F700D27
:1008A000811D1124911DB29F700D811D1124911D78
:1008B00008955058BB27AA270E9471040C94500534
:1008C0000E94420538F00E94490520F039F49F3F0C
:1008D00019F426F40C943F050EF4E095E7FB0C9414
:1008E0003905E92F0E94610558F3BA1762077307AB
:1008F0008407950720F079F4A6F50C9483050EF48F
:10090000E0950B2EBA2FA02D0B01B90190010C011F
:10091000CA01A0011124FF27591B99F0593F50F437
:10092000503E68F11A16F040A22F232F342F44278F
:10093000585FF3CF469537952795A795F040539587
:10094000C9F77EF41F16BA0B620B730B840BBAF057
:100950009150A1F0FF0FBB1F661F771F881FC2F7C2
:100960000EC0BA0F621F731F841F48F487957795D6
:100970006795B795F7959E3F08F0B0CF9395880F90
:1009800008F09927EE0F9795879508950E94CD045A
:100990006894B1110C94840508950E94690588F04B
:1009A0009F5798F0B92F9927B751B0F0E1F0660F33
:1009B000771F881F991F1AF0BA95C9F714C0B13074
:1009C00091F00E948305B1E008950C948305672F90
:1009D000782F8827B85F39F0B93FCCF386957795A3
:1009E0006795B395D9F73EF490958095709561958C
:1009F0007F4F8F4F9F4F0895E89409C097FB3EF4B7
:100A000090958095709561957F4F8F4F9F4F99235B
:100A1000A9F0F92F96E9BB279395F69587957795D9
:100A20006795B795F111F8CFFAF4BB0F11F460FF99
:100A30001BC06F5F7F4F8F4F9F4F16C0882311F0F1
:100A400096E911C0772321F09EE8872F762F05C005
:100A5000662371F096E8862F70E060E02AF09A95A0
:100A6000660F771F881FDAF7880F9695879597F995
:100A7000089597F99F6780E870E060E008959FEF20
:100A800080EC089500240A94161617061806090625
:100A9000089500240A9412161306140605060895F4
:100AA000092E0394000C11F4882352F0BB0F40F47C
:100AB000BF2B11F460FF04C06F5F7F4F8F4F9F4FBC
:100AC000089557FD9058440F551F59F05F3F71F03E
:100AD0004795880F97FB991F61F09F3F79F08795A5
:100AE0000895121613061406551FF2CF4695F1DF2E
:100AF00008C0161617061806991FF1CF86957105BE
:100B0000610508940895E894BB2766277727CB01F1
:100B100097F908950E949D050C9450050E94420586
:100B200038F00E94490520F0952311F00C94390506
:100B30000C943F0511240C9484050E94610570F308
:100B4000959FC1F3950F50E0551F629FF001729F72
:100B5000BB27F00DB11D639FAA27F00DB11DAA1F81
:100B6000649F6627B00DA11D661F829F2227B00DCE
:100B7000A11D621F739FB00DA11D621F839FA00D59
:100B8000611D221F749F3327A00D611D231F849FA9
:100B9000600D211D822F762F6A2F11249F57504000
:100BA0009AF0F1F088234AF0EE0FFF1FBB1F661F7B
:100BB000771F881F91505040A9F79E3F510580F044
:100BC0000C9439050C9484055F3FE4F3983ED4F30C
:100BD000869577956795B795F795E7959F5FC1F7E8
:100BE000FE2B880F911D9695879597F90895F89497
:020BF000FFCF35
:040BF20001000000FE
:107E0000112484B714BE81FFF0D085E080938100F7
:107E100082E08093C00088E18093C10086E0809377
:107E2000C20080E18093C4008EE0C9D0259A86E02C
:107E300020E33CEF91E0309385002093840096BBD3
:107E4000B09BFECF1D9AA8958150A9F7CC24DD24C4
:107E500088248394B5E0AB2EA1E19A2EF3E0BF2EE7
:107E6000A2D0813461F49FD0082FAFD0023811F036
:107E7000013811F484E001C083E08DD089C08234E0
:107E800011F484E103C0853419F485E0A6D080C0E4
:107E9000853579F488D0E82EFF2485D0082F10E0AE
:107EA000102F00270E291F29000F111F8ED06801E7
:107EB0006FC0863521F484E090D080E0DECF843638
:107EC00009F040C070D06FD0082F6DD080E0C81688
:107ED00080E7D80618F4F601B7BEE895C0E0D1E017
:107EE00062D089930C17E1F7F0E0CF16F0E7DF06D8
:107EF00018F0F601B7BEE89568D007B600FCFDCFD4
:107F0000A601A0E0B1E02C9130E011968C91119780
:107F100090E0982F8827822B932B1296FA010C0160
:107F200087BEE89511244E5F5F4FF1E0A038BF0790
:107F300051F7F601A7BEE89507B600FCFDCF97BE46
:107F4000E89526C08437B1F42ED02DD0F82E2BD052
:107F50003CD0F601EF2C8F010F5F1F4F84911BD097
:107F6000EA94F801C1F70894C11CD11CFA94CF0C13
:107F7000D11C0EC0853739F428D08EE10CD085E9AC
:107F80000AD08FE07ACF813511F488E018D01DD067
:107F900080E101D065CF982F8091C00085FFFCCF94
:107FA0009093C60008958091C00087FFFCCF809118
:107FB000C00084FD01C0A8958091C6000895E0E648
:107FC000F0E098E1908380830895EDDF803219F02E
:107FD00088E0F5DFFFCF84E1DECF1F93182FE3DFCA
:107FE0001150E9F7F2DF1F91089580E0E8DFEE27F6
:047FF000FF270994CA
:027FFE00040479
:0400000300007E007B
:00000001FF
