:100000000C945C000C9479000C9479000C947900A9
:100010000C9479000C9479000C9479000C9479007C
:100020000C9479000C9479000C9479000C9479006C
:100030000C9479000C9479000C9479000C9479005C
:100040000C94C7000C9479000C9479000C947900FE
:100050000C9479000C9479000C9479000C9479003C
:100060000C9479000C947900000000080002010053
:100070000003040700000000000000000000000072
:10008000250028002B0000000000240027002A0083
:10009000040404040404040402020202020203032E
:1000A0000303030301020408102040800102040836
:1000B000102001020408102011241FBECFEFD8E049
:1000C000DEBFCDBF11E0A0E0B1E0E8EFF3E002C099
:1000D00005900D92AC30B107D9F721E0ACE0B1E06A
:1000E00001C01D92AB31B207E1F70E9411010C94DF
:1000F000FA010C94000090E0FC01E859FF4F2491B4
:10010000FC01EC55FF4F3491FC01E057FF4FE491A7
:10011000EE23C9F0222339F0233001F1A8F4213075
:1001200019F1223029F1F0E0EE0FFF1FE458FF4FE4
:10013000A591B4918FB7F894EC91611126C03095D8
:100140003E233C938FBF08952730A9F02830C9F093
:10015000243049F7809180008F7D03C0809180001A
:100160008F7780938000DFCF84B58F7784BDDBCF1E
:1001700084B58F7DFBCF8091B0008F778093B000E6
:10018000D2CF8091B0008F7DF9CF3E2BDACF1F9276
:100190000F920FB60F9211242F933F938F939F933B
:1001A000AF93BF938091110190911201A09113011F
:1001B000B09114013091100123E0230F2D3758F531
:1001C0000196A11DB11D2093100180931101909300
:1001D0001201A0931301B093140180910C0190912E
:1001E0000D01A0910E01B0910F010196A11DB11D4D
:1001F00080930C0190930D01A0930E01B0930F0119
:10020000BF91AF919F918F913F912F910F900FBE12
:100210000F901F90189526E8230F0296A11DB11D7F
:10022000D2CF789484B5826084BD84B5816084BD6A
:1002300085B5826085BD85B5816085BD80916E0084
:10024000816080936E0010928100809181008260B5
:1002500080938100809181008160809381008091F2
:1002600080008160809380008091B10084608093E1
:10027000B1008091B00081608093B00080917A00DD
:10028000846080937A0080917A00826080937A0003
:1002900080917A00816080937A0080917A008068F2
:1002A00080937A001092C100A2E0B1E08D9190E0BD
:1002B000FC01EC55FF4F249180579F4FFC01849126
:1002C000882399F090E0880F991FFC01EA57FF4FAF
:1002D000C591D491FC01E458FF4F859194918FB75B
:1002E000F894E881E22BE8838FBF8FB7F8944091B0
:1002F00011015091120160911301709114018FBF8F
:1003000040931701509318016093190170931A01DB
:10031000F1E0AC30BF0709F0C9CF00E010E0EE24F7
:10032000E394F12CCC24CA94DC2C2FB7F894809160
:10033000110190911201A0911301B09114012FBFEE
:1003400040911701509118016091190170911A01A3
:10035000841B950BA60BB70B85369105A105B1053E
:10036000D8F1C2E0D1E0CE01825091400A972CF43E
:1003700060E089910E947B00F6CFC0911501D09179
:100380001601FE01EE5FFE4F61E080810E947B005E
:1003900080910001909101018C0F9D1F9093160197
:1003A0008093150189309105F1F4D0920101C0923A
:1003B00000012FB7F8948091110190911201A09142
:1003C0001301B09114012FBF80931701909318016E
:1003D000A0931901B0931A010115110509F4A5CFD5
:1003E0000E940000A2CF892B21F7F0920101E09238
:0803F0000001DFCFF894FFCFFC
:0C03F80001000405060708090A0B0C0DA3
:00000001FF
