:100000000C945E000C9486000C9486000C94860080
:100010000C9486000C9486000C9486000C94860048
:100020000C9486000C9486000C9486000C94860038
:100030000C9486000C9486000C9486000C94860028
:100040000C948F030C9486000C945D030C9437037E
:100050000C9486000C9486000C9486000C94860008
:100060000C9486000C948600000000080002010039
:100070000003040700000000000000000000000072
:10008000250028002B0000000000240027002A0083
:10009000040404040404040402020202020203032E
:1000A0000303030301020408102040800102040836
:1000B0001020010204081020D903AD0511241FBE31
:1000C000CFEFD8E0DEBFCDBF21E0A4E3B1E001C0B7
:1000D0001D92A03FB207E1F711E0A0E0B1E0ECEF24
:1000E000FFE002C005900D92A433B107D9F710E0EC
:1000F000CDE5D0E004C02197FE010E94F005CC358B
:10010000D107C9F70E9411040C94F1070C94000068
:1001100090E0FC01EC55FF4F249180579F4FFC016C
:100120008491882399F090E0880F991FFC01EA5789
:10013000FF4FA591B491FC01E458FF4F8591949134
:100140008FB7F894EC91E22BEC938FBF089508954C
:10015000AF92BF92CF92DF92EF92FF920F931F93D5
:10016000CF93DF936C017B018B01040F151FEB0113
:100170005E01AE18BF08C017D10759F06991D601CA
:10018000ED91FC910190F081E02DC6010995892B3C
:1001900079F7C501DF91CF911F910F91FF90EF90FB
:1001A000DF90CF90BF90AF900895FC01538D448DA8
:1001B000252F30E0842F90E0821B930B541710F012
:1001C000CF96089501970895FC01918D828D98171F
:1001D00061F0A28DAE0FBF2FB11D5D968C91928DF7
:1001E0009F5F9F73928F90E008958FEF9FEF089528
:1001F0002FB7F8948091390190913A01A0913B0179
:10020000B0913C012FBF8093450190934601A0938C
:100210004701B09348018DE391E00E94E40097FF0D
:1002200026C02FB7F8948091390190913A01A0919E
:100230003B01B0913C012FBF4091450150914601D7
:100240006091470170914801841B950BA60BB70B79
:1002500040914101509142016091430170914401EC
:1002600084179507A607B707B0F28FEF9FEF0895A1
:10027000FC01918D828D981731F0828DE80FF11D70
:10028000858D90E008958FEF9FEF0895FC01918D8B
:10029000228D892F90E0805C9F4F821B91098F7384
:1002A000992708958DE391E00E94460121E0892B72
:1002B00009F420E0822F089580E090E0892B29F056
:1002C0000E94520181110C9400000895FC01A48D3C
:1002D000A80FB92FB11DA35ABF4F2C91848D90E068
:1002E00001968F739927848FA689B7892C93A0894B
:1002F000B1898C91837080648C93938D848D9813D5
:1003000006C00288F389E02D80818F7D8083089567
:10031000EF92FF920F931F93CF93DF93EC0181E055
:10032000888F9B8D8C8D98131AC0E889F9898081FC
:1003300085FF15C09FB7F894EE89FF896083E8892F
:10034000F98980818370806480839FBF81E090E021
:10035000DF91CF911F910F91FF90EF900895F62EAE
:100360000B8D10E00F5F1F4F0F731127E02E8C8D48
:100370008E110CC00FB607FCFACFE889F98980818D
:1003800085FFF5CFCE010E946601F1CFEB8DEC0F1A
:10039000FD2FF11DE35AFF4FF0829FB7F8940B8FAA
:1003A000EA89FB8980818062CFCFCF93DF93EC0114
:1003B000888D8823B9F0AA89BB89E889F9898C914D
:1003C00085FD03C0808186FD0DC00FB607FCF7CF09
:1003D0008C9185FFF2CF808185FFEDCFCE010E9409
:1003E0006601E9CFDF91CF91089590E0FC01E859D3
:1003F000FF4F2491FC01EC55FF4F3491FC01E05775
:10040000FF4FE491EE23C9F0222339F0233001F1AC
:10041000A8F4213019F1223029F1F0E0EE0FFF1F8E
:10042000E458FF4FA591B4918FB7F894EC91611106
:1004300026C030953E233C938FBF08952730A9F006
:100440002830C9F0243049F7809180008F7D03C0A7
:10045000809180008F7780938000DFCF84B58F7785
:1004600084BDDBCF84B58F7DFBCF8091B0008F77CB
:100470008093B000D2CF8091B0008F7DF9CF3E2B1A
:10048000DACF3FB7F8948091350190913601A09171
:100490003701B091380126B5A89B05C02F3F19F050
:1004A0000196A11DB11D3FBFBA2FA92F982F8827F4
:1004B000BC01CD01620F711D811D911D42E0660FCF
:1004C000771F881F991F4A95D1F708958F929F92A1
:1004D000AF92BF92CF92DF92EF92FF920E944102C1
:1004E0004B015C0188EBC82E8BE0D82EE12CF12C5F
:1004F0000E944102681979098A099B09683E734084
:1005000081059105A8F321E0C21AD108E108F1089C
:1005100088EE880E83E0981EA11CB11CC114D10482
:10052000E104F10429F7FF90EF90DF90CF90BF90A6
:10053000AF909F908F900895CF93C82F0E9488000E
:1005400061E08C2FCF910C94F5010F931F93CF9303
:10055000DF938C01EB01FC01808191810097E1F038
:100560006881798161157105A9F0428153812C81DF
:100570003D814217530770F00E94EA078C819D81EC
:10058000F801958384831D821C82DF91CF911F9196
:100590000F9108950E94920688819981F8019183B4
:1005A00080838A819B81938382838C819D819583C3
:1005B0008483198218821B821A82E5CFFC01808114
:1005C0009181009711F00C94920608950F931F9358
:1005D000CF93DF93EC0188819981009759F02A81AC
:1005E0003B812617370730F081E0DF91CF911F91D3
:1005F0000F9108958B016F5F7F4F0E941B0700973B
:1006000059F0998388831B830A832C813D81232B96
:1006100059F7FC011082E8CF80E0E7CFCF93DF935A
:10062000EC01198218821B821A821D821C8270E0E2
:1006300060E00E94E6022881398181110FC02115F6
:10064000310519F0C9010E949206198218821D8293
:100650001C821B821A82DF91CF9108951D821C8219
:1006600062E371E0C901DF91CF910C94EA071F9218
:100670000F920FB60F9211242F933F934F935F93D6
:100680006F937F938F939F93AF93BF93EF93FF935A
:100690008DE391E00E946601FF91EF91BF91AF91D0
:1006A0009F918F917F916F915F914F913F912F918A
:1006B0000F900FBE0F901F9018951F920F920FB6BC
:1006C0000F9211242F938F939F93EF93FF93E091B9
:1006D0004D01F0914E018081E0915301F091540160
:1006E00082FD1BC09081809156018F5F8F73209196
:1006F0005701821741F0E0915601F0E0E35CFE4FB4
:10070000958F80935601FF91EF919F918F912F913B
:100710000F900FBE0F901F9018958081F4CF1F92FD
:100720000F920FB60F9211242F933F938F939F93A5
:10073000AF93BF938091390190913A01A0913B0111
:10074000B0913C013091340123E0230F2D3758F54F
:100750000196A11DB11D209334018093390190931E
:100760003A01A0933B01B0933C01809135019091F7
:100770003601A0913701B09138010196A11DB11D3C
:100780008093350190933601A0933701B0933801DF
:10079000BF91AF919F918F913F912F910F900FBE7D
:1007A0000F901F90189526E8230F0296A11DB11DEA
:1007B000D2CFEDE3F1E01382128288EE93E0A0E065
:1007C000B0E084839583A683B7838AE091E0918328
:1007D000808385EC90E09587848784EC90E0978710
:1007E000868780EC90E0918B808B81EC90E0938BFE
:1007F000828B82EC90E0958B848B86EC90E0978BDB
:10080000868B118E128E138E148E86EE91E00E94CE
:100810000E0380EE91E00E940E038AED91E00C94AD
:100820000E03CF93DF93CDB7DEB728970FB6F894BA
:10083000DEBF0FBECDBF789484B5826084BD84B521
:10084000816084BD85B5826085BD85B5816085BDCB
:1008500080916E00816080936E0010928100809183
:10086000810082608093810080918100816080930B
:100870008100809180008160809380008091B10030
:1008800084608093B1008091B00081608093B0005B
:1008900080917A00846080937A0080917A008260EF
:1008A00080937A0080917A00816080937A008091B1
:1008B0007A00806880937A001092C100E0914D0127
:1008C000F0914E0182E08083E0914901F0914A016C
:1008D0001082E0914B01F0914C018FEC80831092DB
:1008E0005501E0915101F091520186E08083E09141
:1008F0004F01F0915001808180618083E0914F0130
:10090000F0915001808188608083E0914F01F091E7
:100910005001808180688083E0914F01F091500107
:1009200080818F7D80838BE00E9488008AE00E9416
:10093000880089E00E94880088E00E94880087E0A3
:100940000E94880086E00E94880060E089E00E94A2
:10095000F50160E088E00E94F50160E087E00E9418
:10096000F50160E086E00E94F50190E0A92E90E09C
:10097000B92E8DE391E00E944601181619060CF07D
:10098000BAC0CE0101960E940E030E94F80097FDA6
:100990001BC08F8318860D811E810F5F1F4FB8010A
:1009A000CE0101960E94E602882379F329813A81DB
:1009B0008D819E81BE01695F7F4F820F931F0E94D0
:1009C000EA071E830D83E1CFBE016F5F7F4F86EE86
:1009D00091E00E94A502CE0101960E94DE02CE01A6
:1009E00001960E940E03E090EA01F090EB01E11401
:1009F000F104E1F183E0E816F10418F083E0E82E59
:100A0000F12CE091E601F091E701EE0DFF1D9080E1
:100A10001082C090E601D090E701C114D10409F41E
:100A20007DC0F60101900020E9F731978F010C1984
:100A30001D09B801CE0101960E94E60229813A8182
:100A4000811165C02115310519F0C9010E94920676
:100A50001A8219821E821D821C821B828091E601ED
:100A60009091E701E80EF91EF7019082BE016F5FD9
:100A70007F4F80EE91E00E94A502CE0101960E9478
:100A8000DE028091E4019091E501892B09F44CC0CC
:100A900068E171E08091E0019091E1010E94E1073D
:100AA000892B09F041C046E150E06CE171E08DE333
:100AB00091E00E94A8008BE00E949C028AE00E94C4
:100AC0009C0261E089E00E94F50160E088E00E94FC
:100AD000F50160E087E00E94F50161E086E00E9498
:100AE000F5010E94660246E150E06CE171E08DE3A1
:100AF00091E00E94A800A114B10409F43ACF0E9429
:100B00005201882309F435CF0E94000032CF1E83A2
:100B10000D83B601C9010E94EA07A0CF89819A819D
:100B2000009709F093CF94CF8BE00E949C028AE05B
:100B30000E949C0261E089E00E94F50160E088E08B
:100B40000E94F50161E087E00E94F50160E086E027
:100B50000E94F5010E946602CECF8AED91E00E94CC
:100B6000DE0280EE91E00E94DE0286EE91E00C94BF
:100B7000DE022F923F924F925F926F927F928F92FE
:100B80009F92AF92BF92CF92DF92EF92FF920F931C
:100B90001F93CF93DF93CDB7DEB7CA1BDB0B0FB626
:100BA000F894DEBF0FBECDBF09942A8839884888E3
:100BB0005F846E847D848C849B84AA84B984C88479
:100BC000DF80EE80FD800C811B81AA81B981CE0F70
:100BD000D11D0FB6F894DEBF0FBECDBFED01089555
:100BE000EE0FFF1F0590F491E02D09940F931F93D2
:100BF000CF93DF938230910510F482E090E0E09192
:100C0000EE01F091EF0130E020E0B0E0A0E030979D
:100C100099F42115310509F44AC0281B390B2430F9
:100C20003105D8F58A819B816115710589F1FB0138
:100C300093838283FE0111C040815181028113811F
:100C400048175907E0F04817590799F4109761F0D1
:100C500012960C93129713961C933296CF01DF9144
:100C6000CF911F910F9108950093EE011093EF0122
:100C7000F4CF2115310551F04217530738F0A9017F
:100C8000DB019A01BD01DF01F801C1CFEF01F9CF0E
:100C90009093EF018093EE01CDCFFE01E20FF31FA1
:100CA000819391932250310939832883D7CF2091A2
:100CB000EC013091ED01232B41F4209102013091A0
:100CC00003013093ED012093EC012091000130915C
:100CD00001012115310541F42DB73EB740910401C2
:100CE00050910501241B350BE091EC01F091ED01D1
:100CF000E217F307A0F42E1B3F0B2817390778F0F3
:100D0000AC014E5F5F4F2417350748F04E0F5F1F51
:100D10005093ED014093EC01819391939FCFF0E0CC
:100D2000E0E09CCFCF93DF930097E9F0FC0132978E
:100D300013821282A091EE01B091EF01ED0130E03B
:100D400020E01097A1F420813181820F931F209120
:100D5000EC013091ED012817390709F061C0F093DB
:100D6000ED01E093EC01DF91CF910895EA01CE17F8
:100D7000DF07E8F54A815B819E0141155105B1F716
:100D8000E901FB83EA8349915991C40FD51FEC1700
:100D9000FD0761F4808191810296840F951FE9011E
:100DA00099838883828193819B838A83F0E0E0E04A
:100DB00012968D919C9113970097B9F52D913C91C6
:100DC0001197CD010296820F931F2091EC01309173
:100DD000ED012817390739F6309751F51092EF01D8
:100DE0001092EE01B093ED01A093EC01BCCFD38340
:100DF000C28340815181840F951FC817D90761F4C0
:100E00004E5F5F4F88819981480F591F51834083FE
:100E10008A819B81938382832115310509F0B0CFAC
:100E2000F093EF01E093EE019ECFFD01DC01C0CF16
:100E300013821282D7CFB0E0A0E0E1E2F7E00C9499
:100E4000BB058C01009751F4CB010E94F6058C0183
:100E5000C801CDB7DEB7E0E10C94D705FC01E60F81
:100E6000F71F9C0122503109E217F30708F49DC0D7
:100E7000D901CD91DC911197C617D70798F0C530ED
:100E8000D10530F3CE0104978617970708F3C61BE8
:100E9000D70B2297C193D1936D937C93CF010E947E
:100EA0009206D6CF5B01AC1ABD0A4C018C0E9D1E7A
:100EB000A091EE01B091EF01512C412CF12CE12CCD
:100EC000109731F58091EC019091ED01881599050D
:100ED00009F05CC04616570608F058C08091000122
:100EE00090910101009741F48DB79EB740910401A4
:100EF00050910501841B950BE817F90708F055C0C0
:100F0000F093ED01E093EC01F90171836083A0CFD0
:100F10008D919C91119712966C90129713967C90DC
:100F20001397A815B90559F56C0142E0C40ED11C00
:100F3000CA14DB0420F1AC014A195B09DA011296EC
:100F4000159780F06282738251834083D9016D933B
:100F50007C93E114F10471F0D7011396FC93EE93A6
:100F6000129776CF22968C0F9D1FF9019183808373
:100F7000F301EFCFF093EF01E093EE0169CF481654
:100F8000590608F42C017D01D3019ACFCB010E94B0
:100F9000F6057C01009749F0AE01B8010E94D80720
:100FA000C8010E949206870153CF10E000E050CFA5
:100FB000FB01DC0102C001900D9241505040D8F776
:100FC0000895FB01DC018D91019080190110D9F386
:100FD000990B0895FB01DC0101900D920020E1F7CF
:100FE000089510E0CDE5D0E004C0FE010E94F005B8
:0C0FF0002196CE35D107C9F7F894FFCF49
:100FFC000000F0018000000000008801A800D5006E
:10100C00D5014601E4003801736167004D6F746FC0
:10101C0072207361676120646F6E75796F722E2E0A
:04102C002E2E000064
:107E0000112484B714BE81FFF0D085E080938100F7
:107E100082E08093C00088E18093C10086E0809377
:107E2000C20080E18093C4008EE0C9D0259A86E02C
:107E300020E33CEF91E0309385002093840096BBD3
:107E4000B09BFECF1D9AA8958150A9F7CC24DD24C4
:107E500088248394B5E0AB2EA1E19A2EF3E0BF2EE7
:107E6000A2D0813461F49FD0082FAFD0023811F036
:107E7000013811F484E001C083E08DD089C08234E0
:107E800011F484E103C0853419F485E0A6D080C0E4
:107E9000853579F488D0E82EFF2485D0082F10E0AE
:107EA000102F00270E291F29000F111F8ED06801E7
:107EB0006FC0863521F484E090D080E0DECF843638
:107EC00009F040C070D06FD0082F6DD080E0C81688
:107ED00080E7D80618F4F601B7BEE895C0E0D1E017
:107EE00062D089930C17E1F7F0E0CF16F0E7DF06D8
:107EF00018F0F601B7BEE89568D007B600FCFDCFD4
:107F0000A601A0E0B1E02C9130E011968C91119780
:107F100090E0982F8827822B932B1296FA010C0160
:107F200087BEE89511244E5F5F4FF1E0A038BF0790
:107F300051F7F601A7BEE89507B600FCFDCF97BE46
:107F4000E89526C08437B1F42ED02DD0F82E2BD052
:107F50003CD0F601EF2C8F010F5F1F4F84911BD097
:107F6000EA94F801C1F70894C11CD11CFA94CF0C13
:107F7000D11C0EC0853739F428D08EE10CD085E9AC
:107F80000AD08FE07ACF813511F488E018D01DD067
:107F900080E101D065CF982F8091C00085FFFCCF94
:107FA0009093C60008958091C00087FFFCCF809118
:107FB000C00084FD01C0A8958091C6000895E0E648
:107FC000F0E098E1908380830895EDDF803219F02E
:107FD00088E0F5DFFFCF84E1DECF1F93182FE3DFCA
:107FE0001150E9F7F2DF1F91089580E0E8DFEE27F6
:047FF000FF270994CA
:027FFE00040479
:0400000300007E007B
:00000001FF
